{
  "contractName": "Campaign",
  "abi": [
    {
      "inputs": [
        {
          "internalType": "uint256",
          "name": "minimum",
          "type": "uint256"
        },
        {
          "internalType": "address",
          "name": "creator",
          "type": "address"
        },
        {
          "internalType": "address payable",
          "name": "_exchange",
          "type": "address"
        }
      ],
      "stateMutability": "nonpayable",
      "type": "constructor"
    },
    {
      "anonymous": false,
      "inputs": [
        {
          "indexed": true,
          "internalType": "address",
          "name": "previousOwner",
          "type": "address"
        },
        {
          "indexed": true,
          "internalType": "address",
          "name": "newOwner",
          "type": "address"
        }
      ],
      "name": "OwnershipTransferred",
      "type": "event"
    },
    {
      "inputs": [
        {
          "internalType": "address",
          "name": "",
          "type": "address"
        }
      ],
      "name": "approvers",
      "outputs": [
        {
          "internalType": "bool",
          "name": "",
          "type": "bool"
        }
      ],
      "stateMutability": "view",
      "type": "function"
    },
    {
      "inputs": [],
      "name": "approversCount",
      "outputs": [
        {
          "internalType": "uint256",
          "name": "",
          "type": "uint256"
        }
      ],
      "stateMutability": "view",
      "type": "function"
    },
    {
      "inputs": [],
      "name": "exchange",
      "outputs": [
        {
          "internalType": "address payable",
          "name": "",
          "type": "address"
        }
      ],
      "stateMutability": "view",
      "type": "function"
    },
    {
      "inputs": [],
      "name": "feeTransfer",
      "outputs": [
        {
          "internalType": "uint256",
          "name": "",
          "type": "uint256"
        }
      ],
      "stateMutability": "view",
      "type": "function"
    },
    {
      "inputs": [],
      "name": "manager",
      "outputs": [
        {
          "internalType": "address",
          "name": "",
          "type": "address"
        }
      ],
      "stateMutability": "view",
      "type": "function"
    },
    {
      "inputs": [],
      "name": "minimumContribution",
      "outputs": [
        {
          "internalType": "uint256",
          "name": "",
          "type": "uint256"
        }
      ],
      "stateMutability": "view",
      "type": "function"
    },
    {
      "inputs": [],
      "name": "owner",
      "outputs": [
        {
          "internalType": "address",
          "name": "",
          "type": "address"
        }
      ],
      "stateMutability": "view",
      "type": "function"
    },
    {
      "inputs": [],
      "name": "renounceOwnership",
      "outputs": [],
      "stateMutability": "nonpayable",
      "type": "function"
    },
    {
      "inputs": [
        {
          "internalType": "uint256",
          "name": "",
          "type": "uint256"
        }
      ],
      "name": "requests",
      "outputs": [
        {
          "internalType": "uint256",
          "name": "value",
          "type": "uint256"
        },
        {
          "internalType": "address payable",
          "name": "recipient",
          "type": "address"
        },
        {
          "internalType": "bool",
          "name": "complete",
          "type": "bool"
        },
        {
          "internalType": "uint256",
          "name": "approvalCount",
          "type": "uint256"
        }
      ],
      "stateMutability": "view",
      "type": "function"
    },
    {
      "inputs": [
        {
          "internalType": "address",
          "name": "newOwner",
          "type": "address"
        }
      ],
      "name": "transferOwnership",
      "outputs": [],
      "stateMutability": "nonpayable",
      "type": "function"
    },
    {
      "inputs": [
        {
          "internalType": "uint256",
          "name": "_feeTransfer",
          "type": "uint256"
        }
      ],
      "name": "setFeeTransfer",
      "outputs": [
        {
          "internalType": "uint256",
          "name": "",
          "type": "uint256"
        }
      ],
      "stateMutability": "nonpayable",
      "type": "function"
    },
    {
      "inputs": [
        {
          "internalType": "address payable",
          "name": "_exchange",
          "type": "address"
        }
      ],
      "name": "setExchange",
      "outputs": [
        {
          "internalType": "address",
          "name": "",
          "type": "address"
        }
      ],
      "stateMutability": "nonpayable",
      "type": "function"
    },
    {
      "inputs": [],
      "name": "returnAddress",
      "outputs": [
        {
          "internalType": "address",
          "name": "",
          "type": "address"
        }
      ],
      "stateMutability": "view",
      "type": "function"
    },
    {
      "inputs": [],
      "name": "contribute",
      "outputs": [],
      "stateMutability": "payable",
      "type": "function"
    },
    {
      "inputs": [
        {
          "internalType": "uint256",
          "name": "value",
          "type": "uint256"
        },
        {
          "internalType": "address payable",
          "name": "recipient",
          "type": "address"
        }
      ],
      "name": "createRequest",
      "outputs": [],
      "stateMutability": "nonpayable",
      "type": "function"
    },
    {
      "inputs": [
        {
          "internalType": "uint256",
          "name": "index",
          "type": "uint256"
        }
      ],
      "name": "approveRequest",
      "outputs": [],
      "stateMutability": "nonpayable",
      "type": "function"
    },
    {
      "inputs": [
        {
          "internalType": "uint256",
          "name": "index",
          "type": "uint256"
        }
      ],
      "name": "finalizeRequest",
      "outputs": [],
      "stateMutability": "nonpayable",
      "type": "function"
    },
    {
      "inputs": [],
      "name": "getSummary",
      "outputs": [
        {
          "internalType": "uint256",
          "name": "",
          "type": "uint256"
        },
        {
          "internalType": "uint256",
          "name": "",
          "type": "uint256"
        },
        {
          "internalType": "uint256",
          "name": "",
          "type": "uint256"
        },
        {
          "internalType": "uint256",
          "name": "",
          "type": "uint256"
        },
        {
          "internalType": "address",
          "name": "",
          "type": "address"
        }
      ],
      "stateMutability": "view",
      "type": "function"
    },
    {
      "inputs": [],
      "name": "getRequestsCount",
      "outputs": [
        {
          "internalType": "uint256",
          "name": "",
          "type": "uint256"
        }
      ],
      "stateMutability": "view",
      "type": "function"
    }
  ],
  "bytecode": "0x6080604052600a6002553480156200001657600080fd5b50604051620018df380380620018df83398181016040528101906200003c9190620001ff565b6200005c62000050620000ee60201b60201c565b620000f660201b60201c565b81600560006101000a81548173ffffffffffffffffffffffffffffffffffffffff021916908373ffffffffffffffffffffffffffffffffffffffff1602179055508260068190555080600360006101000a81548173ffffffffffffffffffffffffffffffffffffffff021916908373ffffffffffffffffffffffffffffffffffffffff160217905550505050620002f5565b600033905090565b60008060009054906101000a900473ffffffffffffffffffffffffffffffffffffffff169050816000806101000a81548173ffffffffffffffffffffffffffffffffffffffff021916908373ffffffffffffffffffffffffffffffffffffffff1602179055508173ffffffffffffffffffffffffffffffffffffffff168173ffffffffffffffffffffffffffffffffffffffff167f8be0079c531659141344cd1fd0a4f28419497f9722a3daafe3b4186f6b6457e060405160405180910390a35050565b600081519050620001cb81620002a7565b92915050565b600081519050620001e281620002c1565b92915050565b600081519050620001f981620002db565b92915050565b6000806000606084860312156200021557600080fd5b60006200022586828701620001e8565b93505060206200023886828701620001ba565b92505060406200024b86828701620001d1565b9150509250925092565b600062000262826200027d565b9050919050565b600062000276826200027d565b9050919050565b600073ffffffffffffffffffffffffffffffffffffffff82169050919050565b6000819050919050565b620002b28162000255565b8114620002be57600080fd5b50565b620002cc8162000269565b8114620002d857600080fd5b50565b620002e6816200029d565b8114620002f257600080fd5b50565b6115da80620003056000396000f3fe6080604052600436106101145760003560e01c8063715018a6116100a0578063943640c311610064578063943640c3146103aa578063d2f7265a146103d5578063d7bb99ba14610400578063d7d1bbdb1461040a578063f2fde38b1461043357610114565b8063715018a6146102d257806381d12c58146102e957806382fde093146103295780638da5cb5b14610354578063937e09b11461037f57610114565b80632f667ea4116100e75780632f667ea4146101e55780633410452a146102105780634051ddac1461023b578063481c6a751461026a57806367b1f5df1461029557610114565b8063034410061461011957806304387c8d146101425780630a1443911461017f5780632f51e58c146101bc575b600080fd5b34801561012557600080fd5b50610140600480360381019061013b9190611007565b61045c565b005b34801561014e57600080fd5b5061016960048036038101906101649190611007565b6105bf565b60405161017691906112c0565b60405180910390f35b34801561018b57600080fd5b506101a660048036038101906101a19190610fb5565b610628565b6040516101b39190611223565b60405180910390f35b3480156101c857600080fd5b506101e360048036038101906101de9190611030565b610648565b005b3480156101f157600080fd5b506101fa61078f565b60405161020791906112c0565b60405180910390f35b34801561021c57600080fd5b50610225610795565b60405161023291906112c0565b60405180910390f35b34801561024757600080fd5b506102506107a2565b604051610261959493929190611320565b60405180910390f35b34801561027657600080fd5b5061027f6107eb565b60405161028c91906111ed565b60405180910390f35b3480156102a157600080fd5b506102bc60048036038101906102b79190610fde565b610811565b6040516102c991906111ed565b60405180910390f35b3480156102de57600080fd5b506102e76108b4565b005b3480156102f557600080fd5b50610310600480360381019061030b9190611007565b61093c565b60405161032094939291906112db565b60405180910390f35b34801561033557600080fd5b5061033e6109a9565b60405161034b91906112c0565b60405180910390f35b34801561036057600080fd5b506103696109af565b60405161037691906111ed565b60405180910390f35b34801561038b57600080fd5b506103946109d8565b6040516103a191906112c0565b60405180910390f35b3480156103b657600080fd5b506103bf6109de565b6040516103cc91906111ed565b60405180910390f35b3480156103e157600080fd5b506103ea6109e6565b6040516103f79190611208565b60405180910390f35b610408610a0c565b005b34801561041657600080fd5b50610431600480360381019061042c9190611007565b610b1c565b005b34801561043f57600080fd5b5061045a60048036038101906104559190610fb5565b610c8a565b005b600560009054906101000a900473ffffffffffffffffffffffffffffffffffffffff1673ffffffffffffffffffffffffffffffffffffffff163373ffffffffffffffffffffffffffffffffffffffff16146104b657600080fd5b6000600482815481106104f2577f4e487b7100000000000000000000000000000000000000000000000000000000600052603260045260246000fd5b90600052602060002090600302019050600181600201541161051357600080fd5b8060010160149054906101000a900460ff161561052f57600080fd5b8060010160009054906101000a900473ffffffffffffffffffffffffffffffffffffffff1673ffffffffffffffffffffffffffffffffffffffff166108fc82600001549081150290604051600060405180830381858888f1935050505015801561059d573d6000803e3d6000fd5b5060018160010160146101000a81548160ff0219169083151502179055505050565b6000600360009054906101000a900473ffffffffffffffffffffffffffffffffffffffff1673ffffffffffffffffffffffffffffffffffffffff163373ffffffffffffffffffffffffffffffffffffffff161461061b57600080fd5b8160028190559050919050565b60076020528060005260406000206000915054906101000a900460ff1681565b600560009054906101000a900473ffffffffffffffffffffffffffffffffffffffff1673ffffffffffffffffffffffffffffffffffffffff163373ffffffffffffffffffffffffffffffffffffffff16146106a257600080fd5b600060405180608001604052808481526020018373ffffffffffffffffffffffffffffffffffffffff1681526020016000151581526020016000815250905060048190806001815401808255809150506001900390600052602060002090600302016000909190919091506000820151816000015560208201518160010160006101000a81548173ffffffffffffffffffffffffffffffffffffffff021916908373ffffffffffffffffffffffffffffffffffffffff16021790555060408201518160010160146101000a81548160ff021916908315150217905550606082015181600201555050505050565b60025481565b6000600480549050905090565b600080600080600060065447600480549050600854600560009054906101000a900473ffffffffffffffffffffffffffffffffffffffff16945094509450945094509091929394565b600560009054906101000a900473ffffffffffffffffffffffffffffffffffffffff1681565b6000600360009054906101000a900473ffffffffffffffffffffffffffffffffffffffff1673ffffffffffffffffffffffffffffffffffffffff163373ffffffffffffffffffffffffffffffffffffffff161461086d57600080fd5b81600360006101000a81548173ffffffffffffffffffffffffffffffffffffffff021916908373ffffffffffffffffffffffffffffffffffffffff16021790559050919050565b6108bc610d82565b73ffffffffffffffffffffffffffffffffffffffff166108da6109af565b73ffffffffffffffffffffffffffffffffffffffff1614610930576040517f08c379a0000000000000000000000000000000000000000000000000000000008152600401610927906112a0565b60405180910390fd5b61093a6000610d8a565b565b6004818154811061094c57600080fd5b90600052602060002090600302016000915090508060000154908060010160009054906101000a900473ffffffffffffffffffffffffffffffffffffffff16908060010160149054906101000a900460ff16908060020154905084565b60085481565b60008060009054906101000a900473ffffffffffffffffffffffffffffffffffffffff16905090565b60065481565b600030905090565b600360009054906101000a900473ffffffffffffffffffffffffffffffffffffffff1681565b6006543411610a1a57600080fd5b600360009054906101000a900473ffffffffffffffffffffffffffffffffffffffff1673ffffffffffffffffffffffffffffffffffffffff166108fc610a7e6064610a7060025434610e4e90919063ffffffff16565b610ec990919063ffffffff16565b9081150290604051600060405180830381858888f19350505050158015610aa9573d6000803e3d6000fd5b506001600760003373ffffffffffffffffffffffffffffffffffffffff1673ffffffffffffffffffffffffffffffffffffffff16815260200190815260200160002060006101000a81548160ff02191690831515021790555060086000815480929190610b15906114a7565b9190505550565b600060048281548110610b58577f4e487b7100000000000000000000000000000000000000000000000000000000600052603260045260246000fd5b90600052602060002090600302019050600760003373ffffffffffffffffffffffffffffffffffffffff1673ffffffffffffffffffffffffffffffffffffffff16815260200190815260200160002060009054906101000a900460ff16610bbe57600080fd5b600160003373ffffffffffffffffffffffffffffffffffffffff1673ffffffffffffffffffffffffffffffffffffffff16815260200190815260200160002060009054906101000a900460ff1615610c1557600080fd5b60018060003373ffffffffffffffffffffffffffffffffffffffff1673ffffffffffffffffffffffffffffffffffffffff16815260200190815260200160002060006101000a81548160ff021916908315150217905550806002016000815480929190610c81906114a7565b91905055505050565b610c92610d82565b73ffffffffffffffffffffffffffffffffffffffff16610cb06109af565b73ffffffffffffffffffffffffffffffffffffffff1614610d06576040517f08c379a0000000000000000000000000000000000000000000000000000000008152600401610cfd906112a0565b60405180910390fd5b600073ffffffffffffffffffffffffffffffffffffffff168173ffffffffffffffffffffffffffffffffffffffff161415610d76576040517f08c379a0000000000000000000000000000000000000000000000000000000008152600401610d6d90611260565b60405180910390fd5b610d7f81610d8a565b50565b600033905090565b60008060009054906101000a900473ffffffffffffffffffffffffffffffffffffffff169050816000806101000a81548173ffffffffffffffffffffffffffffffffffffffff021916908373ffffffffffffffffffffffffffffffffffffffff1602179055508173ffffffffffffffffffffffffffffffffffffffff168173ffffffffffffffffffffffffffffffffffffffff167f8be0079c531659141344cd1fd0a4f28419497f9722a3daafe3b4186f6b6457e060405160405180910390a35050565b600080831415610e615760009050610ec3565b60008284610e6f91906113c0565b9050828482610e7e919061138f565b14610ebe576040517f08c379a0000000000000000000000000000000000000000000000000000000008152600401610eb590611280565b60405180910390fd5b809150505b92915050565b6000610f0b83836040518060400160405280601a81526020017f536166654d6174683a206469766973696f6e206279207a65726f000000000000815250610f13565b905092915050565b60008083118290610f5a576040517f08c379a0000000000000000000000000000000000000000000000000000000008152600401610f51919061123e565b60405180910390fd5b5060008385610f69919061138f565b9050809150509392505050565b600081359050610f858161155f565b92915050565b600081359050610f9a81611576565b92915050565b600081359050610faf8161158d565b92915050565b600060208284031215610fc757600080fd5b6000610fd584828501610f76565b91505092915050565b600060208284031215610ff057600080fd5b6000610ffe84828501610f8b565b91505092915050565b60006020828403121561101957600080fd5b600061102784828501610fa0565b91505092915050565b6000806040838503121561104357600080fd5b600061105185828601610fa0565b925050602061106285828601610f8b565b9150509250929050565b6110758161142c565b82525050565b6110848161141a565b82525050565b6110938161143e565b82525050565b60006110a482611373565b6110ae818561137e565b93506110be818560208601611474565b6110c78161154e565b840191505092915050565b60006110df60268361137e565b91507f4f776e61626c653a206e6577206f776e657220697320746865207a65726f206160008301527f64647265737300000000000000000000000000000000000000000000000000006020830152604082019050919050565b600061114560218361137e565b91507f536166654d6174683a206d756c7469706c69636174696f6e206f766572666c6f60008301527f77000000000000000000000000000000000000000000000000000000000000006020830152604082019050919050565b60006111ab60208361137e565b91507f4f776e61626c653a2063616c6c6572206973206e6f7420746865206f776e65726000830152602082019050919050565b6111e78161146a565b82525050565b6000602082019050611202600083018461107b565b92915050565b600060208201905061121d600083018461106c565b92915050565b6000602082019050611238600083018461108a565b92915050565b600060208201905081810360008301526112588184611099565b905092915050565b60006020820190508181036000830152611279816110d2565b9050919050565b6000602082019050818103600083015261129981611138565b9050919050565b600060208201905081810360008301526112b98161119e565b9050919050565b60006020820190506112d560008301846111de565b92915050565b60006080820190506112f060008301876111de565b6112fd602083018661106c565b61130a604083018561108a565b61131760608301846111de565b95945050505050565b600060a08201905061133560008301886111de565b61134260208301876111de565b61134f60408301866111de565b61135c60608301856111de565b611369608083018461107b565b9695505050505050565b600081519050919050565b600082825260208201905092915050565b600061139a8261146a565b91506113a58361146a565b9250826113b5576113b461151f565b5b828204905092915050565b60006113cb8261146a565b91506113d68361146a565b9250817fffffffffffffffffffffffffffffffffffffffffffffffffffffffffffffffff048311821515161561140f5761140e6114f0565b5b828202905092915050565b60006114258261144a565b9050919050565b60006114378261144a565b9050919050565b60008115159050919050565b600073ffffffffffffffffffffffffffffffffffffffff82169050919050565b6000819050919050565b60005b83811015611492578082015181840152602081019050611477565b838111156114a1576000848401525b50505050565b60006114b28261146a565b91507fffffffffffffffffffffffffffffffffffffffffffffffffffffffffffffffff8214156114e5576114e46114f0565b5b600182019050919050565b7f4e487b7100000000000000000000000000000000000000000000000000000000600052601160045260246000fd5b7f4e487b7100000000000000000000000000000000000000000000000000000000600052601260045260246000fd5b6000601f19601f8301169050919050565b6115688161141a565b811461157357600080fd5b50565b61157f8161142c565b811461158a57600080fd5b50565b6115968161146a565b81146115a157600080fd5b5056fea2646970667358221220ead31a2f9a6aee1496698cfdb152ddc459dcfc30b746dde99109204ca9ff9fba64736f6c63430008000033",
  "immutableReferences": {},
  "source": "// SPDX-License-Identifier: BUSL-1.1\n\n/** \nBusiness Source License 1.1\n\nLicense text copyright (c) 2017 MariaDB Corporation Ab, All Rights Reserved.\n\"Business Source License\" is a trademark of MariaDB Corporation Ab.\n\n-----------------------------------------------------------------------------\n\nParameters\n\nLicensor:             DATACURRENCY SERVICOS DIGITAIS LTDA - CNPJ 41950795000186\n\nLicensed Work:        Destarter Platform(this smartContract) \n                      The Licensed Work is (c) 2022 DATACURRENCY SERVICOS DIGITAIS LTDA\n\nAdditional Use Grant: Any uses listed and defined at\n                      Destarter.io\n\nChange Date:           2030-04-01 \n\nChange License:       GNU General Public License v2.0 or later\n\n-----------------------------------------------------------------------------\n\nTerms\n\nThe Licensor hereby grants you the right to copy, modify, create derivative\nworks, redistribute, and make non-production use of the Licensed Work. The\nLicensor may make an Additional Use Grant, above, permitting limited\nproduction use.\n\nEffective on the Change Date, or the fourth anniversary of the first publicly\navailable distribution of a specific version of the Licensed Work under this\nLicense, whichever comes first, the Licensor hereby grants you rights under\nthe terms of the Change License, and the rights granted in the paragraph\nabove terminate.\n\nIf your use of the Licensed Work does not comply with the requirements\ncurrently in effect as described in this License, you must purchase a\ncommercial license from the Licensor, its affiliated entities, or authorized\nresellers, or you must refrain from using the Licensed Work.\n\nAll copies of the original and modified Licensed Work, and derivative works\nof the Licensed Work, are subject to this License. This License applies\nseparately for each version of the Licensed Work and the Change Date may vary\nfor each version of the Licensed Work released by Licensor.\n\nYou must conspicuously display this License on each original or modified copy\nof the Licensed Work. If you receive the Licensed Work in original or\nmodified form from a third party, the terms and conditions set forth in this\nLicense apply to your use of that work.\n\nAny use of the Licensed Work in violation of this License will automatically\nterminate your rights under this License for the current and all other\nversions of the Licensed Work.\n\nThis License does not grant you any right in any trademark or logo of\nLicensor or its affiliates (provided that you may use a trademark or logo of\nLicensor as expressly required by this License).\n\nTO THE EXTENT PERMITTED BY APPLICABLE LAW, THE LICENSED WORK IS PROVIDED ON\nAN \"AS IS\" BASIS. LICENSOR HEREBY DISCLAIMS ALL WARRANTIES AND CONDITIONS,\nEXPRESS OR IMPLIED, INCLUDING (WITHOUT LIMITATION) WARRANTIES OF\nMERCHANTABILITY, FITNESS FOR A PARTICULAR PURPOSE, NON-INFRINGEMENT, AND\nTITLE.\n\nMariaDB hereby grants you permission to use this Licenses text to license\nyour works, and to refer to it using the trademark \"Business Source License\",\nas long as you comply with the Covenants of Licensor below.\n\n-----------------------------------------------------------------------------\n\nCovenants of Licensor\n\nIn consideration of the right to use this Licenses text and the \"Business\nSource License\" name and trademark, Licensor covenants to MariaDB, and to all\nother recipients of the licensed work to be provided by Licensor:\n\n1. To specify as the Change License the GPL Version 2.0 or any later version,\n   or a license that is compatible with GPL Version 2.0 or a later version,\n   where \"compatible\" means that software provided under the Change License can\n   be included in a program with software provided under GPL Version 2.0 or a\n   later version. Licensor may specify additional Change Licenses without\n   limitation.\n\n2. To either: (a) specify an additional grant of rights to use that does not\n   impose any additional restriction on the right granted in this License, as\n   the Additional Use Grant; or (b) insert the text \"None\".\n\n3. To specify a Change Date.\n\n4. Not to modify this License in any other way.\n\n-----------------------------------------------------------------------------\n\nNotice\n\nThe Business Source License (this document, or the \"License\") is not an Open\nSource license. However, the Licensed Work will eventually be made available\nunder an Open Source License, as stated in this License.\n\n\n */\n\n\npragma solidity ^0.8.0;\n\nimport '@openzeppelin/contracts/token/ERC20/IERC20.sol';\nimport './IToken.sol';\n\nlibrary SafeMath {\n    /**\n     * @dev Returns the addition of two unsigned integers, reverting on\n     * overflow.\n     *\n     * Counterpart to Solidity's `+` operator.\n     *\n     * Requirements:\n     *\n     * - Addition cannot overflow.\n     */\n    function add(uint256 a, uint256 b) internal pure returns (uint256) {\n        uint256 c = a + b;\n        require(c >= a, \"SafeMath: addition overflow\");\n\n        return c;\n    }\n\n    /**\n     * @dev Returns the subtraction of two unsigned integers, reverting on\n     * overflow (when the result is negative).\n     *\n     * Counterpart to Solidity's `-` operator.\n     *\n     * Requirements:\n     *\n     * - Subtraction cannot overflow.\n     */\n    function sub(uint256 a, uint256 b) internal pure returns (uint256) {\n        return sub(a, b, \"SafeMath: subtraction overflow\");\n    }\n\n    /**\n     * @dev Returns the subtraction of two unsigned integers, reverting with custom message on\n     * overflow (when the result is negative).\n     *\n     * Counterpart to Solidity's `-` operator.\n     *\n     * Requirements:\n     *\n     * - Subtraction cannot overflow.\n     */\n    function sub(uint256 a, uint256 b, string memory errorMessage) internal pure returns (uint256) {\n        require(b <= a, errorMessage);\n        uint256 c = a - b;\n\n        return c;\n    }\n\n    /**\n     * @dev Returns the multiplication of two unsigned integers, reverting on\n     * overflow.\n     *\n     * Counterpart to Solidity's `*` operator.\n     *\n     * Requirements:\n     *\n     * - Multiplication cannot overflow.\n     */\n    function mul(uint256 a, uint256 b) internal pure returns (uint256) {\n        // Gas optimization: this is cheaper than requiring 'a' not being zero, but the\n        // benefit is lost if 'b' is also tested.\n        // See: https://github.com/OpenZeppelin/openzeppelin-contracts/pull/522\n        if (a == 0) {\n            return 0;\n        }\n\n        uint256 c = a * b;\n        require(c / a == b, \"SafeMath: multiplication overflow\");\n\n        return c;\n    }\n\n    /**\n     * @dev Returns the integer division of two unsigned integers. Reverts on\n     * division by zero. The result is rounded towards zero.\n     *\n     * Counterpart to Solidity's `/` operator. Note: this function uses a\n     * `revert` opcode (which leaves remaining gas untouched) while Solidity\n     * uses an invalid opcode to revert (consuming all remaining gas).\n     *\n     * Requirements:\n     *\n     * - The divisor cannot be zero.\n     */\n    function div(uint256 a, uint256 b) internal pure returns (uint256) {\n        return div(a, b, \"SafeMath: division by zero\");\n    }\n\n    /**\n     * @dev Returns the integer division of two unsigned integers. Reverts with custom message on\n     * division by zero. The result is rounded towards zero.\n     *\n     * Counterpart to Solidity's `/` operator. Note: this function uses a\n     * `revert` opcode (which leaves remaining gas untouched) while Solidity\n     * uses an invalid opcode to revert (consuming all remaining gas).\n     *\n     * Requirements:\n     *\n     * - The divisor cannot be zero.\n     */\n    function div(uint256 a, uint256 b, string memory errorMessage) internal pure returns (uint256) {\n        require(b > 0, errorMessage);\n        uint256 c = a / b;\n        // assert(a == b * c + a % b); // There is no case in which this doesn't hold\n\n        return c;\n    }\n\n    /**\n     * @dev Returns the remainder of dividing two unsigned integers. (unsigned integer modulo),\n     * Reverts when dividing by zero.\n     *\n     * Counterpart to Solidity's `%` operator. This function uses a `revert`\n     * opcode (which leaves remaining gas untouched) while Solidity uses an\n     * invalid opcode to revert (consuming all remaining gas).\n     *\n     * Requirements:\n     *\n     * - The divisor cannot be zero.\n     */\n    function mod(uint256 a, uint256 b) internal pure returns (uint256) {\n        return mod(a, b, \"SafeMath: modulo by zero\");\n    }\n\n    /**\n     * @dev Returns the remainder of dividing two unsigned integers. (unsigned integer modulo),\n     * Reverts with custom message when dividing by zero.\n     *\n     * Counterpart to Solidity's `%` operator. This function uses a `revert`\n     * opcode (which leaves remaining gas untouched) while Solidity uses an\n     * invalid opcode to revert (consuming all remaining gas).\n     *\n     * Requirements:\n     *\n     * - The divisor cannot be zero.\n     */\n    function mod(uint256 a, uint256 b, string memory errorMessage) internal pure returns (uint256) {\n        require(b != 0, errorMessage);\n        return a % b;\n    }\n}\n\nabstract contract Context {\n    function _msgSender() internal view virtual returns (address) {\n        return msg.sender;\n    }\n\n    function _msgData() internal view virtual returns (bytes calldata) {\n        return msg.data;\n    }\n}\n\nabstract contract Ownable is Context {\n    address private _owner;\n\n    event OwnershipTransferred(address indexed previousOwner, address indexed newOwner);\n\n    /**\n     * @dev Initializes the contract setting the deployer as the initial owner.\n     */\n    constructor() {\n        _transferOwnership(_msgSender());\n    }\n\n    /**\n     * @dev Returns the address of the current owner.\n     */\n    function owner() public view virtual returns (address) {\n        return _owner;\n    }\n\n    /**\n     * @dev Throws if called by any account other than the owner.\n     */\n    modifier onlyOwner() {\n        require(owner() == _msgSender(), \"Ownable: caller is not the owner\");\n        _;\n    }\n\n    /**\n     * @dev Leaves the contract without owner. It will not be possible to call\n     * `onlyOwner` functions anymore. Can only be called by the current owner.\n     *\n     * NOTE: Renouncing ownership will leave the contract without an owner,\n     * thereby removing any functionality that is only available to the owner.\n     */\n    function renounceOwnership() public virtual onlyOwner {\n        _transferOwnership(address(0));\n    }\n\n    /**\n     * @dev Transfers ownership of the contract to a new account (`newOwner`).\n     * Can only be called by the current owner.\n     */\n    function transferOwnership(address newOwner) public virtual onlyOwner {\n        require(newOwner != address(0), \"Ownable: new owner is the zero address\");\n        _transferOwnership(newOwner);\n    }\n\n    /**\n     * @dev Transfers ownership of the contract to a new account (`newOwner`).\n     * Internal function without access restriction.\n     */\n    function _transferOwnership(address newOwner) internal virtual {\n        address oldOwner = _owner;\n        _owner = newOwner;\n        emit OwnershipTransferred(oldOwner, newOwner);\n    }\n}\n\n\ncontract Campaign is Ownable  {\nusing SafeMath for uint256;  \n    \n    // verifica se o endereo j aprovou\n    \n    mapping(address => bool) approvals;\n    \n    uint public feeTransfer = 10;\n    address payable public exchange;\n    \n    struct Request {\n       \n        uint value;\n        address payable recipient;\n        bool complete;\n        uint approvalCount;\n        \n    }\n\n    // global variables\n    Request[] public requests;\n    address public manager;\n    // quem vai receber o feeTransfer\n    \n    \n    \n    uint public minimumContribution;\n    mapping(address => bool) public approvers;\n    uint public approversCount;\n\n    modifier restricted() {\n        require(msg.sender == manager);\n        _;\n    }\n\n    modifier onlyExchange() {\n        require(msg.sender == exchange);\n        _;\n    }\n\n\n    constructor(uint minimum, address creator, address payable _exchange) {\n        manager = creator;\n        minimumContribution = minimum;\n        exchange = _exchange;\n    }\n\n    \n    function setFeeTransfer(uint _feeTransfer) public onlyExchange returns(uint) {\n    return feeTransfer = _feeTransfer;\n\n    }\n\n    function setExchange(address payable _exchange) public onlyExchange returns(address) { \n    return exchange = _exchange;\n    }\n    function returnAddress() public view returns(address){\n\n        return address(this);\n    }\n    \n\n\n    function contribute() public payable {\n        require(msg.value > minimumContribution);\n        \n        exchange.transfer(msg.value.mul(feeTransfer).div(100));\n        approvers[msg.sender] = true;\n        approversCount++;\n    }\n\n    function createRequest( uint value, address payable recipient) public restricted {\n        Request memory newRequest = Request({\n          \n           value: value,\n           recipient: recipient,\n           complete: false,\n           approvalCount: 0\n        });\n\n        requests.push(newRequest);\n    }\n\n    function approveRequest(uint index) public {\n        Request storage request = requests[index];\n\n        // requer que o aprove tenha contribudo\n        require(approvers[msg.sender]);\n        \n        // requer que no tenha aprovado ainda\n        require(!approvals[msg.sender]);\n\n        // uma vez que ele aprovou seta true para que no venha aprovar mais\n        approvals[msg.sender] = true;\n        \n        request.approvalCount++;\n    }\n\n    function finalizeRequest(uint index) public restricted {\n        Request storage request = requests[index];\n\n\n        require(request.approvalCount > 1);\n        require(!request.complete);\n        \n        request.recipient.transfer(request.value);\n        request.complete = true;\n    }\n\n    function getSummary() public view returns (\n      uint, uint, uint, uint, address\n      ) {\n        return (\n          minimumContribution,\n          address(this).balance,\n          requests.length,\n          approversCount,\n          manager\n        );\n    }\n\n    function getRequestsCount() public view returns (uint) {\n        return requests.length;\n    }\n}\n\n\n\n\n/** \nBusiness Source License 1.1\n\nLicense text copyright (c) 2017 MariaDB Corporation Ab, All Rights Reserved.\n\"Business Source License\" is a trademark of MariaDB Corporation Ab.\n\n-----------------------------------------------------------------------------\n\nParameters\n\nLicensor:             DATACURRENCY SERVICOS DIGITAIS LTDA - CNPJ 41950795000186\n\nLicensed Work:        Destarter Platform(this smartContract) \n                      The Licensed Work is (c) 2022 DATACURRENCY SERVICOS DIGITAIS LTDA\n\nAdditional Use Grant: Any uses listed and defined at\n                      Destarter.io\n\nChange Date:           2030-04-01 \n\nChange License:       GNU General Public License v2.0 or later\n\n-----------------------------------------------------------------------------\n\nTerms\n\nThe Licensor hereby grants you the right to copy, modify, create derivative\nworks, redistribute, and make non-production use of the Licensed Work. The\nLicensor may make an Additional Use Grant, above, permitting limited\nproduction use.\n\nEffective on the Change Date, or the fourth anniversary of the first publicly\navailable distribution of a specific version of the Licensed Work under this\nLicense, whichever comes first, the Licensor hereby grants you rights under\nthe terms of the Change License, and the rights granted in the paragraph\nabove terminate.\n\nIf your use of the Licensed Work does not comply with the requirements\ncurrently in effect as described in this License, you must purchase a\ncommercial license from the Licensor, its affiliated entities, or authorized\nresellers, or you must refrain from using the Licensed Work.\n\nAll copies of the original and modified Licensed Work, and derivative works\nof the Licensed Work, are subject to this License. This License applies\nseparately for each version of the Licensed Work and the Change Date may vary\nfor each version of the Licensed Work released by Licensor.\n\nYou must conspicuously display this License on each original or modified copy\nof the Licensed Work. If you receive the Licensed Work in original or\nmodified form from a third party, the terms and conditions set forth in this\nLicense apply to your use of that work.\n\nAny use of the Licensed Work in violation of this License will automatically\nterminate your rights under this License for the current and all other\nversions of the Licensed Work.\n\nThis License does not grant you any right in any trademark or logo of\nLicensor or its affiliates (provided that you may use a trademark or logo of\nLicensor as expressly required by this License).\n\nTO THE EXTENT PERMITTED BY APPLICABLE LAW, THE LICENSED WORK IS PROVIDED ON\nAN \"AS IS\" BASIS. LICENSOR HEREBY DISCLAIMS ALL WARRANTIES AND CONDITIONS,\nEXPRESS OR IMPLIED, INCLUDING (WITHOUT LIMITATION) WARRANTIES OF\nMERCHANTABILITY, FITNESS FOR A PARTICULAR PURPOSE, NON-INFRINGEMENT, AND\nTITLE.\n\nMariaDB hereby grants you permission to use this Licenses text to license\nyour works, and to refer to it using the trademark \"Business Source License\",\nas long as you comply with the Covenants of Licensor below.\n\n-----------------------------------------------------------------------------\n\nCovenants of Licensor\n\nIn consideration of the right to use this Licenses text and the \"Business\nSource License\" name and trademark, Licensor covenants to MariaDB, and to all\nother recipients of the licensed work to be provided by Licensor:\n\n1. To specify as the Change License the GPL Version 2.0 or any later version,\n   or a license that is compatible with GPL Version 2.0 or a later version,\n   where \"compatible\" means that software provided under the Change License can\n   be included in a program with software provided under GPL Version 2.0 or a\n   later version. Licensor may specify additional Change Licenses without\n   limitation.\n\n2. To either: (a) specify an additional grant of rights to use that does not\n   impose any additional restriction on the right granted in this License, as\n   the Additional Use Grant; or (b) insert the text \"None\".\n\n3. To specify a Change Date.\n\n4. Not to modify this License in any other way.\n\n-----------------------------------------------------------------------------\n\nNotice\n\nThe Business Source License (this document, or the \"License\") is not an Open\nSource license. However, the Licensed Work will eventually be made available\nunder an Open Source License, as stated in this License.\n\n\n */\n\n\n\ncontract CampaignFactory is Ownable{\nusing SafeMath for uint256;    \n    IToken token;\n    // fixar varivel balance mnimo de token\n    uint public feeCreate;\n    address payable public exchange;\n    Campaign newCampaign;\n    address[] public deployedCampaigns;\n\n   \n    // constructor factor\n    constructor( address _token, address payable _exchange)  {\n      \n    exchange = _exchange;\n     token = IToken(_token);\n    }\n    \n    // apenas o owner do factor pode setar o feeCreate\n    function setFeeCreate(uint _feeCreate) public onlyOwner returns(uint) {\n\n        return feeCreate = _feeCreate;\n    }\n\n    function createCampaign(uint minimum) public {\n    \n    newCampaign = new Campaign(minimum, msg.sender, exchange);\n    \n    require(token.balanceOf(msg.sender) >= feeCreate, \"unsufficient token balance\");\n    \n   \n    address campaingnAddress = newCampaign.returnAddress();\n    deployedCampaigns.push(campaingnAddress);\n    \n    \n    }\n\n    function getDeployedCampaigns() public view returns (address[]memory)\n     {\n        return deployedCampaigns;\n    }\n}\n\n",
  "sourcePath": "C:\\Users\\ferna\\destarter\\contracts\\CampaignBasic.sol",
  "compiler": {
    "name": "solc",
    "version": "0.8.0+commit.c7dfd78e.Emscripten.clang"
  },
  "schemaVersion": "3.4.4",
  "updatedAt": "2022-02-10T06:27:47.010Z",
  "devdoc": {
    "kind": "dev",
    "methods": {
      "owner()": {
        "details": "Returns the address of the current owner."
      },
      "renounceOwnership()": {
        "details": "Leaves the contract without owner. It will not be possible to call `onlyOwner` functions anymore. Can only be called by the current owner. NOTE: Renouncing ownership will leave the contract without an owner, thereby removing any functionality that is only available to the owner."
      },
      "transferOwnership(address)": {
        "details": "Transfers ownership of the contract to a new account (`newOwner`). Can only be called by the current owner."
      }
    },
    "version": 1
  },
  "userdoc": {
    "kind": "user",
    "methods": {},
    "version": 1
  }
}